{
  "contractName": "HelloWorld",
  "abi": [
    {
      "inputs": [],
      "payable": false,
      "type": "constructor"
    },
    {
      "constant": true,
      "inputs": [],
      "name": "greet",
      "outputs": [
        {
          "name": "",
          "type": "string"
        }
      ],
      "payable": false,
      "type": "function"
    },
    {
      "constant": false,
      "inputs": [],
      "name": "kill",
      "outputs": [],
      "payable": false,
      "type": "function"
    }
  ],
  "bytecode": "0x60606040526040805190810160405280600b81526020017f48656c6c6f20576f726c640000000000000000000000000000000000000000008152506001908051906020019061004f9291906100a2565b50341561005b57600080fd5b5b336000806101000a81548173ffffffffffffffffffffffffffffffffffffffff021916908373ffffffffffffffffffffffffffffffffffffffff1602179055505b610147565b828054600181600116156101000203166002900490600052602060002090601f016020900481019282601f106100e357805160ff1916838001178555610111565b82800160010185558215610111579182015b828111156101105782518255916020019190600101906100f5565b5b50905061011e9190610122565b5090565b61014491905b80821115610140576000816000905550600101610128565b5090565b90565b61026d806101566000396000f30060606040526000357c0100000000000000000000000000000000000000000000000000000000900463ffffffff16806341c0e1b514610049578063cfae32171461005e575b600080fd5b341561005457600080fd5b61005c6100ed565b005b341561006957600080fd5b610071610184565b6040518080602001828103825283818151815260200191508051906020019080838360005b838110156100b25780820151818401525b602081019050610096565b50505050905090810190601f1680156100df5780820380516001836020036101000a031916815260200191505b509250505060405180910390f35b3373ffffffffffffffffffffffffffffffffffffffff166000809054906101000a900473ffffffffffffffffffffffffffffffffffffffff1673ffffffffffffffffffffffffffffffffffffffff1614151561014857600080fd5b6000809054906101000a900473ffffffffffffffffffffffffffffffffffffffff1673ffffffffffffffffffffffffffffffffffffffff16ff5b565b61018c61022d565b60018054600181600116156101000203166002900480601f0160208091040260200160405190810160405280929190818152602001828054600181600116156101000203166002900480156102225780601f106101f757610100808354040283529160200191610222565b820191906000526020600020905b81548152906001019060200180831161020557829003601f168201915b505050505090505b90565b6020604051908101604052806000815250905600a165627a7a72305820315b0fcbee09224be9521276660cfd1ac7886683a7646f53a390eb41ee2209ad0029",
  "source": "pragma solidity ^0.4.15;\n\ncontract HelloWorld {\n    address owner;\n    string greeting = \"Hello World\";\n    // Constructor function\n    function HelloWorld() public {\n        owner = msg.sender;\n    }\n\n    function greet() constant public returns (string) {\n        return greeting;\n    }\n\n    function kill() public {\n        require(owner == msg.sender);\n        selfdestruct(owner);\n    }\n}",
  "sourcePath": "/Users/maks/Dropbox/golang/src/github.com/ypapax/building_games_with_etherium_smart_contracts/contracts/HelloWorld.sol",
  "compiler": {
    "name": "solc",
    "version": "0.4.15+commit.bbb8e64f.Emscripten.clang"
  },
  "schemaVersion": "3.0.14",
  "updatedAt": "2019-08-31T06:57:26.693Z",
  "devdoc": {
    "methods": {}
  },
  "userdoc": {
    "methods": {}
  }
}